:1000000075812F907FD67404F0907F987401F090E2
:100010007F9E74CFF0907F987441F0907FE2E4F07F
:10002000119911A5907F937410F0907FE27440F0C5
:10003000907F987440F011997820E0D8FD907F93DC
:10004000E4F0907F9874C0F0907F9E744FF07AC86F
:1000500079C878C8907F9BE020E506D8F7D9F3DA15
:10006000EF907F987441F0907FDD7410F0907F9353
:100070007430F0907FE27440F0E4F58E907FC8E039
:1000800020E10211BA907FCCE020E10211D4907FF0
:10009000D0E020E102510C80E3907FE37410F0A3E4
:1000A0007400F0A322E4F0F0F0F074FFF0E4F074D8
:1000B00080F0F0E47818F0D8FD22907FC9E060135A
:1000C000F8907FE3747DF0A374C0F0A3E0D8FD90B6
:1000D0007FC9F02278C07900752100907FCDE06063
:1000E00025310CFA7F00310CFBFD310CFC3126313F
:1000F000183112EC20E00631CCDAE98004316EDAF6
:10010000E3907FBDE9F0E4907FCDF02275927CE230
:10011000082275927DF30922907FA57480F02290C9
:100120007FA5E540F022907FA5E020E6FC22907FAD
:10013000A5E030E0FCFE20E20A20E103EF6004537A
:10014000D0FD22D2D122907FA5E0D2E5F02220D1AD
:100150000E8920A921EDD2E63112A920892122EEB3
:10016000A9210521232323232354C0311222EB602C
:1001700051907FA6ECF0312E20D1427FFF53D0204A
:100180001BEB7004D2D53146907FA6E0312E20D1F2
:100190002C20D51E1BEB600D907FA6E03112312E76
:1001A00020D11ADBF33146907FA6E03112312E20A8
:1001B000D10B311F907FA6E03112314E22314E31EA
:1001C0001F227E0053D0FD314E311F221B907FA68F
:1001D000ECF0312E20D110EB600D310C907FA6F0A9
:1001E000312E20D102DBF3314E311F22E8C0E090E6
:1001F0007FBCE020E1FC907FE3747DF0A37400F00D
:10020000A3F0D8FDD0E0F8907FBDF022907FD1E040
:100210007008907F9E744EF07066FFDF20907BC068
:10022000E020E105907F988003907F9EF0907F9B77
:10023000E0907C00F0907FC17401F08043DF30904B
:100240007BC0E0F522A3E07840600BFF31EC31EC9D
:1002500031EC31ECDFF6EE30E70431EC31ECEE302E
:10026000E60231ECEE543F6017F831ECE480119077
:100270007FE3747BF0A374C0F0A3E0E0E0DFFDE473
:05028000907FD1F02287
:00000001FF
